:1000000002308A00432A00000A108A100A1182076F
:100010003134323433344134343435343634423488
:1000200037343834393443342A3430342334443484
:100030000A108A100A11820728340C34013406345D
:100040000C0049274729C5294129A021CC20D622C7
:100050000001A031EC30F632A0316F39F232633A50
:100060006100A020E432EC306E3AE510000120106F
:100070006336613B65106539F237EE32610020105E
:10008000E837EC3000004130840083130008031986
:1000900056280630F800F701F70B4C28F80B4B28D0
:1000A0007B30F700F70B5228800B492808004818CE
:1000B0005B2808125C280816831608128312C818D9
:1000C00063288812642888168316881283124819B8
:1000D0006B2808136C280817831608138312C81995
:1000E00073288813742888178316881300008811D2
:1000F000831288150230F700F70B7C287F28000058
:100100008316881183128811080083160811831240
:1001100008116330F700F70B8B288E28C5080319E8
:10012000962883160811831208159A288316081139
:100130008312081100008316881183128811460E5D
:10014000C7000F30C7054708C800572046080F39B9
:10015000C700C800572008000130A6008316081108
:100160008312081183168811831288112330C1006D
:100170004320BD013D08023C031CC6280330C800D3
:1001800057200530C1004320BD0ABA280230C800FC
:100190005720BD013D08033C031CDA283D08182008
:1001A000BE00C5013E08C60085200530C1004320C1
:1001B000BD0ACA288A110A12652A8A110A12662AF9
:1001C0004208013A0319EE28033A0319F028013ACC
:1001D0000319F328073A0319F628F928C301FA2866
:1001E0004030C300FA281430C300FA285430C3004A
:1001F000FA28C30101304102C30743088038C40014
:10020000C5014408C6008520080040080C3A0319BF
:100210001029063A03191A29023A03192129262915
:10022000C5010130C60085200130A6000230C100A2
:1002300043202B29A60A0130C1002608C200E02075
:100240002B29C5011030C60085202B290130C5009F
:100250004008C600852008000B08BD008B138316DC
:1002600003178C170C140000000083120313BD1B2E
:100270008B1703170C087F39031980290313BD005E
:1002800003170D080313BE0003170F080313BF0065
:100290003D08C00005213E0803178D0003133F08E9
:1002A00003178F0003130B08C0008B13831603176B
:1002B0008C170C140000000083120313C01B8B1753
:1002C00003170C0D0E0D7F39031980290313BD0090
:1002D00003170D080313BE0003170F080313BF0015
:1002E0003D08C00005213E0803178D0003133F0899
:1002F00003178F008D0A03198F0A03132C29031784
:1003000003130800BD01A20A2208213C0318E229B8
:100310002508FC3E0318A529043EEB29FE30831670
:10032000860083128600A529FD308316860083127D
:100330008600A529FB308316860083128600A52936
:10034000F7308316860083128600231CB129060825
:10035000F039F03C031DB02923102408BD00A4018E
:10036000E1290608F039F03C0319DC2906081039A8
:10037000031DBC29BE01D02906082039031DC3294D
:100380000130BE00D02906084039031DCA290230B9
:10039000BE00D02906088039031DD0290330BE00D5
:1003A0003E0DF700F70DFC30F70577082507042010
:1003B000F800A4002314E129A50A2508043C031928
:1003C000A501A201FF308316860083123D08F800C4
:1003D0008A110A12832A0A148A100A1182078E29A6
:1003E00094299A29A0293E08FA003D088400831325
:1003F0007A188317800803193D2A3E08C2003D0879
:10040000C1004008C4003F08C3004408FA00430884
:10041000840083137A188317800803192A2A420854
:10042000FA004108840083137A1883170008C50076
:100430004408FA004308840083137A1883170008DD
:100440004502031D2A2AC10A0319C20AC30A031955
:10045000C40A052A4408FA004308840083137A1862
:1004600083178008031D392A3D08F8003E08F9006B
:10047000402ABD0A0319BE0AF3290030F800F9002A
:100480008A110A12A82A03081F398300A801BC0197
:1004900083161F149F141F159F1107309C00831390
:1004A0008312A001A101A2012310A401A501233000
:1004B000A9003030AA00AB00AC00AD00AE00AF0028
:1004C000B000B100B200B301AC28DD28831681135F
:1004D00083123C080319702A013A0319E42AF22A0C
:1004E0000C30C00005210130C100C200E0202130E5
:1004F00003178D0000308F0003132C21A801A808DA
:10050000031D9A2A82297808A700A7080319992AA7
:10051000343028078400831327088000A80A01309C
:100520002807BD00C1000230C200E0202708C0003B
:1005300005217F2A0630BD00FA30C1004320BD0BE3
:100540009C2ABE013430BD00C0012930BF00F32910
:10055000780879040319D02A091489100C30C000D6
:1005600005210130C100C200E020293003178D00B1
:1005700000308F0003132C21BC0A6430C1004320DB
:100580000130C1000230C200E020313003178D007D
:1005900000308F0003132C219630C1004320E32A42
:1005A000891409100C30C00005210130C100C200BF
:1005B000E020373003178D0000308F0003132C210B
:1005C0009630C1004320F22A0C30C00005210130D2
:1005D000C100C200E0203F3003178D0000308F00C3
:0805E00003132C21692A6300BA
:02400E00323F3F
:00000001FF
;PIC16F877A
;CRC=4C90  CREATED="05-ene.-23 18:47"
