:1000000008308A00002800000A108A100A118207AE
:1000100028340C34013406340A108A100A1182077D
:100020003134323433344134343435343634423478
:1000300037343834393443342A3430342334443474
:100040000C00E23A65372032E9302000E3376E3A9F
:100050000001D4326D383A00D037F334E3346F37CF
:100060003A00331AAD193500331BAD193700331C74
:10007000AD1939005039E539E937EE32A011203891
:1000800061396110F4326D380001C22AD321412751
:10009000C4270001C22AD3214127C4270001331BF2
:1000A000AD193700F037F334E3346F37201A00010D
:1000B00049274729C529451047294122CF29000151
:1000C0003310E434E734F437730069308400831369
:1000D0000008031979280130F800F701F70B6E28A2
:1000E000F80B6D284A30F700F70B74287728800B3F
:1000F0006B28080070187E2808127F2808168316BF
:100100000812F01887288312881289288316831210
:100110008816831688127019912883120813932861
:1001200083168312081783160813F0199B2883126D
:1001300088139D288316831288178316881300005E
:10014000881183128815A4288316881183128811B8
:10015000080083160811831208111330F700F70BFB
:10016000AF28B228ED080319BA28831608118312A4
:100170000815BE2883160811831208110000831683
:100180008811831288116E0EEF000F30EF056F0893
:10019000F0007A206E080F39EF00F0007A20080096
:1001A0000130A100831608118312081183168811EB
:1001B000831288112330E9006520D7015708023CDB
:1001C000031CEA280330F0007A200530E90065209E
:1001D000D70ADE280230F0007A20D7015708033C06
:1001E000031CFE2857080420D800ED015808EE0033
:1001F000A9200530E9006520D70AEE288A150A12E1
:100200004E288A150A1251285F080139013C031D46
:100210000E29831608128312081612298316081253
:10022000831208125F080239023C031D1C29831641
:100230008812831288162029831688128312881246
:100240005F080439043C031D2A298316081383120E
:1002500008172E2983160813831208135F0808391C
:10026000083C031D382983168813831288173C29FC
:1002700083168813831288131330F700F70B3E2977
:100280004129DE080319492983160811831208152C
:100290004D298316081183120811831688118312C1
:1002A00088155229831688118312881108005C0E64
:1002B000DD000F30DD055B08DE005D08DF00042196
:1002C0005C080F39DD005B08DE005D08DF000421FB
:1002D0000800570DF700F70DF70DF830F705770810
:1002E000403ED800DB015808DC0057210800D90146
:1002F0005908073C031C8B295908570784008313AE
:10030000581883170008DA000130DB005A08DC00B7
:100310005721D90A782908006A08013A03199A294D
:10032000033A03199C29013A03199F29073A031933
:10033000A229A529EB01A6294030EB00A6291430FB
:10034000EB00A6295430EB00A629EB01013069022D
:10035000EB076B088038EC00ED016C08EE00A9207B
:10036000080068080C3A0319BC29063A0319C62983
:10037000023A0319CD29D229ED010130EE00A9205E
:100380000130A1000230E9006520D729A10A01301F
:10039000E9002108EA008C21D729ED011030EE0098
:1003A000A920D7290130ED006808EE00A920080037
:1003B0000130DB005708DC00572108000B08D7008C
:1003C0008B13831603178C170C1400000000831284
:1003D0000313D71B8B1703170C087F390319322A15
:1003E0000313D70003170D080313D80003170F08D2
:1003F0000313D9005708E800B121580803178D00EE
:100400000313590803178F0003130B08DA008B132B
:10041000831603178C170C140000000083120313BB
:10042000DA1B8B1703170C0D0E0D7F390319322AB7
:100430000313D70003170D080313D80003170F0881
:100440000313D9005708E800B121580803178D009D
:100450000313590803178F008D0A03198F0A03131A
:10046000DE2903170313080057080739F700570C54
:10047000F800F80CF80C1F30F805780858078400CD
:100480008313591883170008F800F70A482AF80C54
:10049000F70B472A0800A011200883168700831253
:1004A000871120122008831687008312071220105C
:1004B00020088316870083120714C830E9006520DE
:1004C0002010200883168700831207100130E900EE
:1004D0006520D70157080F3C031C8A2A20162008E4
:1004E000831687008312071A772A0310782A0314C9
:1004F000D80DD90DA0112008831687008312871507
:100500000000A011200883168700831287110000C5
:10051000D70A6A2AA3105819A3140130E9006520EC
:100520002010200883168700831207145808F8004B
:100530005908F9007908D8007808D7005808DA0077
:100540005708D9005A0CFA00590CF900FA0CF90CAA
:10055000FA0CF90C1F30FA057908F7000F30FA058C
:100560007908F8007A08F9007908D8007808D700E7
:100570005808DA005708D9005A08DC005908DB008F
:100580008E30F7005C08F8005B08F900FA01F80803
:10059000031DD42A7908F800F9010830F702F80899
:1005A000031DD42AF701DC2A0310F81BDB2AF90DFE
:1005B000F80DF703D42AF8137A08DE007908DD0075
:1005C0007808DC007708DB0083145E08E2005D0831
:1005D000E1005C08E0005B08DF00E601E501303087
:1005E000E4008430E30080308318E406E901EA0186
:1005F0006008E8006408E8065F080319E32BE700D9
:10060000F70063080319EC2BE7020319882B031C7E
:10061000462B6408ED00ED176508EC006608EB005A
:10062000EA010310ED0CEC0CEB0CEA0CE70B102BC1
:10063000E81F1D2B6914002C6910671069166230C1
:1006400084008313152C6912E81B302B671C3B2B8D
:10065000ED0CEC0CEB0CEA0CF70A0319FB2B3B2B13
:10066000ED1B3E2B0310EA0DEB0DEC0DED0DF7032A
:100670000319FB2B302B6917A82B69136008E800BE
:10068000E81F442BED17F42BED13F42B6308E70060
:10069000F7005F08E7026008ED00ED176108EC0065
:1006A0006208EB00EA010310ED0CEC0CEB0CEA0C19
:1006B000E70B522BE81F5F2BE914002CE9106710A1
:1006C000E916663084008313152CE912E81B722B9F
:1006D000671C7D2BED0CEC0CEB0CEA0CF70A0319F4
:1006E000FB2B7D2BED1B802B0310EA0DEB0DEC0D8E
:1006F000ED0DF7030319FB2B722BE917A82BE91358
:100700006408E800E81F862BED17F42BED13F42B9B
:100710006408ED00ED176508EC006608EB00E81FC3
:10072000952BED136915002C6911EA0167106230F1
:1007300084008313152CE81BBE2B6008E800671C9F
:10074000A82BED0CEC0CEB0CEA0CF70A0319FB2BB5
:10075000EA1FB92BEB0A031DB92BEC0A031DB92BB9
:10076000ED0A031DB92BED0CEC0CEB0CF70A031989
:10077000FB2B691B3D2BE91B7F2BDD2B8030ED060E
:10078000ED1FC62B002C6408E800D32B6008E8009E
:10079000ED08031DD32BEC08031DD32BEB08031D21
:1007A000D32BF701F42BED1BDD2B0310EA0DEB0D22
:1007B000EC0DED0DF70BD32BFB2BE81FE12BED1709
:1007C000F42BED13F42B6308F7006408ED006508C3
:1007D000EC006608EB00F42B5F08F7006008ED0002
:1007E0006108EC006208EB006D08F8006C08F90085
:1007F0006B08FA00332CF701F801F901FA01332CE8
:10080000EA01EB09EC09ED09EA09EA0A031D0E2CDD
:10081000EB0A031D0E2CEC0A0319ED0A69181C2BB8
:10082000E9185E2B6919942BC32B0008EB07031CF6
:100830001F2CEC0A031D1F2CED0A031967148403F7
:100840000008EC07031C272CED0A03196714840326
:100850000008801F803AED0703186714691A232BDC
:10086000E91A652B9B2B7A08DE007908DD007808F1
:10087000DC007708DB005E08E2005D08E1005C0850
:10088000E0005B08DF006830E6005A30E500013028
:10089000E4008030E3005F080319102DEB006308CB
:1008A0000319102DEB02031C5A2C7F30EB070318A1
:1008B000102D602C8130EB02031C102D0319102D1C
:1008C0006B08F700F801F901FA01EA016008E90094
:1008D000E9176108E8006208E7001930EB006608D4
:1008E000E7020318832C0130E8020318832CE90285
:1008F0000318832CEA020318832CEA0AE90AE80A9F
:100900006608E707B52C6508E80203189E2C01303D
:10091000E90203189E2CEA0203189E2CEA0AE90A4F
:100920006508E8076608E707031CB52CE80A031DFD
:10093000B52CE90A031DB52CEA0AB52C64088038E9
:10094000E9020318B42C0130EA020318B42CEA0AB5
:1009500064088038E9076508E807031C922CE90A57
:10096000031D922CEA0A922C7A14EB0BB82CC32CA0
:100970000310E70DE80DE90DEA0D0310FA0DF90D6E
:10098000F80DEC0D6F2C6C1CCB2C0310F80CF90C33
:10099000FA0CEC0CCE2CF7030319102DEC1BF72CE2
:1009A0000310E70DE80DE90DEA0D6608E7020318EC
:1009B000E32C0130E8020318E32CE9020318E32CCE
:1009C000EA02031C062D6508E8020318EE2C01302C
:1009D000E9020318EE2CEA02031C062D6408803895
:1009E000E9020318F72C0130EA02031C062DFA0A6B
:1009F000031D062DF90A031D062DF80A031D062DF9
:100A0000F70A0319102DF80CF90CFA0C6008EB002A
:100A10006408EB06EB1F0E2DF817142DF813142D98
:100A2000F701F801F901FA018A150A12F128831871
:100A30001C2D703084008313F701F801F901FA01CD
:100A4000F001F101F201F3016F086E046D046C0412
:100A500003195A2D2030F4000310E80DE90DEA0DBA
:100A6000EB0DF00DF10DF20DF30D6F087302031D88
:100A7000432D6E087202031D432D6D087102031D84
:100A8000432D6C087002031C542D6C08F0026D0895
:100A9000031C6D0FF1026E08031C6E0FF2026F084B
:100AA000031C6F0FF3020314F70DF80DF90DFA0D87
:100AB000F40B2C2D70088000840A71088000840AD1
:100AC00072088000840A7308800008000408E000AF
:100AD0005F08E2000319F82D5E08EB005D08EA00EC
:100AE0005C08E9005B08E800EF01EE012030ED0052
:100AF0008230EC0068080319EA2DF0006C08031935
:100B0000EA2DF00703188B2D7F30F002031CEA2D2D
:100B10000319EA2D8F2D8130F0070318EA2D700894
:100B2000F700F801F901FA016908F400F4176A08FE
:100B3000F3006B08F2001830F000F101721CB82DC0
:100B40006F08FA07031CAA2DF90A031DAA2DF80A3B
:100B50000319F1176E08F907031CB12DF80A0319E0
:100B6000F1176D08EA00EA176A08F8070318F11789
:100B7000F10DF80CF90CFA0CF40CF30CF20C031058
:100B8000F00B9D2D0130F7070318EA2DF81BCF2D30
:100B9000F40DFA0DF90DF80DF7030319EA2DF41F02
:100BA000E02DFA0A031DE02DF90A031DE02DF80AD5
:100BB000031DE02DF80CF90CFA0CF70A0319EA2DC5
:100BC0006908F1006D08F106F11FE82DF817EE2D08
:100BD000F813EE2DF701F801F901FA017A08DE00A9
:100BE0007908DD007808DC007708DB00E20B6C2D6B
:100BF0005E08EB005D08EA005C08E9005B08E800BD
:100C00006808B63CE800FA016908EC00E91703102F
:100C1000E90CEA0CEB0CFA0CF90CF80CF70CE80BED
:100C2000072EEC1F1E2EF709F809F909FA09F70A31
:100C30000319F80A0319F90A0319FA0A7A08DE00F7
:100C40007908DD007808DC007708DB00DE1F352E30
:100C5000E003E016DB09DC09DD09DE09DB0A031924
:100C6000DC0A0319DD0A0319DE0A3B30E7009A307B
:100C7000E600CA30E500E4010A30E2005F0803192B
:100C8000E00A83145B30840083135E08EB005D0888
:100C9000EA005C08E9005B08E8006708EF00660806
:100CA000EE006508ED006408EC0017257808F708E9
:100CB000031D6D2E5F0A620203196D2E6008031971
:100CC0006F2E0F3962020319672E03189F2EE01B47
:100CD0009F2E601B6F2E20309B2E2030E005E01EE3
:100CE0007D2EE0125F08031DE0037708E0002D3041
:100CF000E800B1216008F700E0015F086202031D0F
:100D00008B2E7708E0002E30E800B1216008F70054
:100D10002030E00500303030E01E9B2EE0125F08EE
:100D2000031DE0037708E0002D30E800B1216008E2
:100D3000F700E0013030F7077708E800B1218310B1
:100D40006708EB006608EA006508E9006408E80047
:100D5000EF01EE01ED010A30EC0017257A08E700FB
:100D60007908E6007808E5007708E400E20B412EF8
:100D70008A150A120829D701A20A2208213C031861
:100D80001B2F2508FC3E0318DE2E043E222FFE30CA
:100D90008316860083128600DE2EFD3083168600C1
:100DA00083128600DE2EFB308316860083128600B7
:100DB000DE2EF7308316860083128600231CEA2E6F
:100DC0000608F039F03C031DE92E23102408D70053
:100DD000A4011A2F0608F039F03C0319152F060854
:100DE0001039031DF52ED801092F06082039031DDF
:100DF000FC2E0130D800092F06084039031D032FAF
:100E00000230D800092F06088039031D092F03304E
:100E1000D800580DF700F70DFC30F70577082507C7
:100E20000C20F800A40023141A2FA50A2508043C5E
:100E30000319A501A201FF3083168600831257080B
:100E4000F80008000A148A140A158207C72ECD2E4E
:100E5000D32ED92E5808FA005708840083137A1825
:100E6000831780080319742F5808DC005708DB002B
:100E70005A08DE005908DD005E08FA005D088400AB
:100E800083137A18831780080319612F5C08FA000E
:100E90005B08840083137A1883170008DF005E085C
:100EA000FA005D08840083137A18831700085F0234
:100EB000031D612FDB0A0319DC0ADD0A0319DE0AB0
:100EC0003C2F5E08FA005D08840083137A188317AC
:100ED0008008031D702F5708F8005808F900772F75
:100EE000D70A0319D80A2A2F0030F800F9000800A1
:1010000003081F398300FF30A000C101C201C301E2
:10101000C401C501C601C701D501D60183161F143D
:101020009F141F159F1107309C0083138312A20188
:101030002310A401A501A601A701A8010A30A90057
:10104000AA00AB00AC011130AD000E30AE00AF0114
:101050000730B0000530B1000730B200B301B40171
:10106000B501B601B7010130B8000330B90007304F
:10107000BA00BB00BC00BD000D30BE001D30BF007B
:101080004130CD00CE014230CF00D0014330D100FD
:10109000D2012330D300D4018A11D0288A158A11B5
:1010A00001298A1583168113FF3088008600870086
:1010B0008312A0000030831685008312D7018A11A5
:1010C00069218A15D8012830D7008A1177218A151D
:1010D0000130D7008A1169218A15D8013030D70034
:1010E0008A1177218A150230D7008A1169218A1561
:1010F000D8013830D7008A1177218A15C101C30180
:101100005508F93E0318622B073E642B0C30E800AB
:101110008A11B1218A150630E9000230EA008A11ED
:101120008C218A150230D7008A11D8218A152130E6
:1011300003178D0000308F008A110313DE218A15FA
:10114000D7018A11D8218A15C830E9008A11652093
:101150008A15D50A622B5508D700D901D8018A1102
:1011600034228A157818AB285508D700D901D80140
:101170008A1134228A157818DC290C30E8008A118B
:10118000B1218A150130E900EA008A118C218A1503
:10119000263003178D0000308F008A110313DE21E3
:1011A0008A150530E9000130EA008A118C218A1580
:1011B0000130E9000230EA008A118C218A152930B9
:1011C00003178D0000308F008A110313DE218A156A
:1011D0000830E9000330EA008A118C218A158A114F
:1011E0004B2A8A157A08DA007908D9007808D800DD
:1011F0007708D700C93084005A08DE005908DD009E
:101200005808DC005708DB000230DF008A11662D29
:101210008A15B030E8008A11B1218A154330E80000
:101220008A11B1218A150D30E8008A11B1218A1581
:101230000A30E8008A11B1218A151130E900023024
:10124000EA008A118C218A150130D7008A11D82131
:101250008A150130E9000330EA008A118C218A15D1
:101260002C3003178D0000308F008A110313DE210C
:101270008A15440B4B290B30E9000330EA008A1130
:101280008C218A15313003178D0000308F008A11B0
:101290000313DE218A15450B5D290B30E90003306D
:1012A000EA008A118C218A15343003178D00003032
:1012B0008F008A110313DE218A15460B6F290B302C
:1012C000E9000330EA008A118C218A1537300317B0
:1012D0008D0000308F008A110313DE218A15013042
:1012E000E9000430EA008A118C218A153A3003178C
:1012F0008D0000308F008A110313DE218A15C1088A
:10130000031D9E298A11BB268A157808C000C008D3
:1013100003199D294C304107840083134008800045
:10132000C10A0A30E9000130EA008A118C218A15CD
:101330004008E8008A11B1218A157F29D8014C3074
:10134000D700DA014D30D9008A112A278A1578088A
:1013500079040319AD290330D500D8014C30D700EA
:10136000DA014F30D9008A112A278A1578087904C2
:101370000319BC290430D500D8014C30D700DA015C
:101380005130D9008A112A278A157808790403195F
:10139000CB290530D500D8014C30D700DA015330C5
:1013A000D9008A112A278A15780879040319DA29BD
:1013B0000630D500DC29B4280C30E8008A11B121B0
:1013C0008A150730E9000130EA008A118C218A155C
:1013D000453003178D0000308F008A110313DE2182
:1013E0008A15C401C501C601C7014308013C031C9D
:1013F000052AA01020088316870083128710201169
:10140000200883168700831207154308023C03183F
:10141000152AA01020088316870083128710201138
:1014200020088316870083120715051C1D2A051C3A
:101430001D2A0130C400C300172A440B2B2AA01018
:101440002008831687008312871020112008831636
:10145000870083120711440B402AA010200883162E
:1014600087008312871020112008831687008312BB
:1014700007110130D500C830E9008A1165208A15AE
:10148000C830E9008A1165208A15622B0C30E8000B
:101490008A11B1218A150730E9000130EA008A116A
:1014A0008C218A154A3003178D0000308F008A1175
:1014B0000313DE218A150730E9000230EA008A11A1
:1014C0008C218A154F3003178D0000308F008A1150
:1014D0000313DE218A15C401C501C601C7014308F3
:1014E000013C031C7F2AA01020088316870083126A
:1014F00087102011200883168700831207154308E0
:10150000023C03188F2AA01020088316870083123C
:101510008710201120088316870083120715851C69
:10152000982A851C982A0130C5000230C300912AF0
:10153000450BA62AA0102008831687008312871067
:10154000201120088316870083120711450BBB2A40
:10155000A01020088316870083128710201120080E
:1015600083168700831207110130D500C830E900C7
:101570008A1165208A15C830E9008A1165208A150C
:10158000622BC401C501C601C7014308033C031C0B
:10159000D52AA010200883168700831287102011F7
:1015A000200883168700831207150C30E8008A1183
:1015B000B1218A150730E9000130EA008A118C2137
:1015C0008A15523003178D0000308F008A110313E3
:1015D000DE218A15001CF32A051DF32A0130C600FE
:1015E0000330C300EC2A460B012BA0102008831601
:1015F000870083128710201120088316870083122A
:101600000711460B0A2B0130D500C830E9008A11BA
:1016100065208A15622B0C30E8008A11B1218A15E9
:101620000130E900EA008A118C218A15583003172D
:101630008D0000308F008A110313DE218A150130DE
:10164000D7008A11D8218A150130E9000230EA005A
:101650008A118C218A15603003178D0000308F00AD
:101660008A110313DE218A154108023C031C5D2BFD
:101670008A11BB268A157808C000C0080319572BA9
:10168000483041078400831340088000C10A0130BC
:101690004107D700E9000430EA008A118C218A153D
:1016A0004008E8008A11B1218A154008D600D60802
:1016B00003195C2B0130D500342B6430E9008A110A
:1016C00065208A157E2863000A148A140A1182078D
:0E16D0008628AB28622BDC29462AC12A0B2B68
:02400E007A3FF7
:00000001FF
;PIC16F877A
;CRC=B97D  CREATED="05-ene.-23 09:20"
