:1000000002308A00552A0000CC30203AE5367010C4
:100010008A32731DA0127510430039308400831397
:100020000008031920280630F800F701F70B1628FE
:10003000F80B15287B30F700F70B1C28800B1328D2
:100040000800400EF039F7000F30080577048800EB
:10005000000008140230F700F70B2C282F280000AE
:10006000081008000808F700080E0F39F80008000B
:100070008316081088100811831288100F30831619
:100080000805F038880083120815000008140000E5
:1000900032207808C0000810000008144F285028AB
:1000A000000032207808BF0008100F3083160805C2
:1000B00088008312400EF700F030F70577083F0400
:1000C000F8007808BF00BF1B3E283D1C88103D1873
:1000D000881400000811000008103E0EBF000F3009
:1000E000BF053F08C00021203E080F39BF00C000F7
:1000F000212008002830B5000C30B6000130B700D0
:100100000630B8000810881008110F308316080553
:1001100088000810881008110F308312B9000D20D4
:100120000130B4003408033C031C9E280330C00097
:1001300021200530B9000D20B40A92280230C000F9
:1001400021200530B9000D20B4013408033C031C04
:10015000B52835303407840083130008B900BD0189
:100160003908BE003820B40AA5288A110A12832A49
:100170008A110A12842A8E30F7003508F8003408F4
:10018000F900FA01F808031DCF287908F800F901F1
:100190000830F702F808031DCF28F701D72803100D
:1001A000F81BD628F90DF80DF703CF28F8138A119C
:1001B0000A12B52A340803194A29BC003808031961
:1001C0004A29BC070318EB287F30BC02031C4A29CC
:1001D00003194A29EF288130BC0703184A293C0833
:1001E000F700F801F901FA013508C000C017360818
:1001F000BF003708BE001830BC00BD013E1C1829E6
:100200003B08FA07031C0A29F90A031D0A29F80A00
:100210000319BD173A08F907031C1129F80A031935
:10022000BD173908B600B6173608F8070318BD170A
:10023000BD0DF80CF90CFA0CC00CBF0CBE0C031071
:10024000BC0BFD280130F70703184A29F81B2F299A
:10025000C00DFA0DF90DF80DF70303194A29C01F57
:100260004029FA0A031D4029F90A031D4029F80A0A
:10027000031D4029F80CF90CFA0CF70A03194A2956
:100280003508BD003908BD06BD1F4829F8174E299D
:10029000F8134E29F701F801F901FA018A110A123F
:1002A000C62A8E30F7003408F7023508F900360800
:1002B000F800F917F708031968290310F908031D56
:1002C0006429F80803196829F90CF80CF70B5D2963
:1002D000B51F6F29F809F909F80A0319F90A8A11F3
:1002E0000A12CF2A3A0B752978294030BB007929A8
:1002F000BB0101303902BB073B088038BC00BD019F
:100300003C08BE00382008003808073A0319922933
:100310000B3A03199729063A03199F29023A031940
:10032000A529AA290130B900BA007221AF29BD015F
:100330000130BE0038200230B9000D20AF29013055
:10034000B9000230BA007221AF29BD011030BE00E1
:100350003820AF290130BD003808BE003820080021
:100360000B08B5008B13831603178C170C140000B1
:10037000000083120313B51B8B170318E72903171B
:100380000C087F390313B50003170D080313B600DB
:1003900003170F080313B7003508B8008421360887
:1003A00003178D000313370803178F0003130B087F
:1003B000B8008B13831603178C170C140000000071
:1003C00083120313B81B8B17B40BE729062A0317F4
:1003D0000C0D0E0D7F390313B50003170D08031321
:1003E000B60003170F080313B7003508B8008421BF
:1003F000360803178D000313370803178F008D0A83
:1004000003198F0A03100313B40BB0298A110A12BF
:10041000E02A3708F80136020318112A3608F700D7
:100420001D2AF7010830B800B60DF70D370877021E
:100430000318F700F80DB80B142A080078083408E0
:10044000B6006430B70009227708B400780830306D
:10045000031D312AB51C382AB519382A351A20301F
:10046000342AB51135123514F8077808B8008421FC
:100470003408B6000A30B70009227708B4007808BB
:100480003030031D492AB5194D2A351C4D2A351A1D
:100490002030F8077808B80084213030B4073408D9
:1004A000B80084218A110A12E52A03081F39830043
:1004B000A701FF30B10083161F149F141F159F1151
:1004C00007309C0083138312A001A101A201231015
:1004D000A401A5013130A800A900AA00AB00AC011D
:1004E00083161F1383121F179F1783169F138312E0
:1004F0001F1483161F109F101F119F11FF308800BB
:10050000860083127A28B828831681138312091073
:100510008910B1163108831687008312871E012BBC
:10052000B1163108831687008312871A902A311773
:100530003108831687008312071B012B0030F80057
:100540001F08C73978049F002030F700F70BA62A50
:10055000A92A00001F151F19AB2A83161E08831233
:10056000B200B5013208B400BB287A08B700790898
:10057000B6007808B5007708B4005A30BB00F530F3
:10058000BA007930B9007D30B800DA287A08B700AF
:100590007908B6007808B5007708B40051297808C2
:1005A000B3000230B9000130BA00722104300317E1
:1005B0008D0000308F0003100D300313B400B029FC
:1005C0003308B4001B30B5001E2A2030B800842147
:1005D0004330B80084212030F700F70BED2AF02AD1
:1005E00000003308193A0319F92A043A0319FA2AC0
:1005F000002B95012030F700F70BFC2AFF2A0000A2
:06060000972A892A63001D
:02400E00323F3F
:00000001FF
;PIC16F877A
;CRC=3B8F  CREATED="19-oct.-22 20:41"
