:1000000006308A00442E0000563084008313000816
:10001000031918280130F800F701F70B0D28F80B29
:100020000C284A30F700F70B13281628800B0A28F3
:1000300008005D0EF039F7000F30080577048800DE
:10004000000008142328081008000808F700080E0C
:100050000F39F80008008316081088100811831261
:1000600088100F3083160805F038880083120815B1
:1000700000000814000025207808DD0008100000AA
:100080000814000025207808DC0008100F308316C3
:100090000805880083125D0EF700F030F705770839
:1000A0005C04F8007808DC00DC1B31285A1C88103E
:1000B0005A18881400000811000008105B0EDC00BC
:1000C0000F30DC055C08DD0019205B080F39DC000F
:1000D000DD00192008002830C5000C30C6000130B2
:1000E000C7000630C8000810881008110F308316AA
:1000F000080588000810881008110F308312D600F8
:1001000004200130C4004408033C031C8F28033042
:10011000DD0019200530D6000420C40A83280230EF
:10012000DD0019200530D6000420C4014408033C3A
:10013000031CA62845304407840083130008C90027
:10014000DA014908DB002B20C40A96288A110A121A
:100150005D2EA011200883168700831287112012BC
:1001600020088316870083120712201020088316A8
:10017000870083120714C830D600042020102008FE
:1001800083168700831207100130D6000420C401B3
:1001900044080F3C031CE82820162008831687001B
:1001A0008312071AD5280310D6280314C50DC60DCF
:1001B000A011200883168700831287150000A01164
:1001C000200883168700831287110000C40AC828FC
:1001D0002110451921140130D600042020102008D8
:1001E00083168700831207144508F8004608F900B3
:1001F0007908C5007808C4004508C7004408C6004F
:10020000470CFA00460CF900FA0CF90CFA0CF90C40
:100210001F30FA057908F7000F30FA057908F80061
:100220007A08F9007908C5007808C4004508C700B5
:100230004408C6004708C9004608C8008E30F700C9
:100240004908F8004808F900FA01F808031D3229A6
:100250007908F800F9010830F702F808031D32297F
:10026000F7013A290310F81B3929F90DF80DF703A6
:100270003229F8137A08CB007908CA007808C90037
:100280007708C80083144B08CF004A08CE004908FD
:10029000CD004808CC00D301D2013030D1008430E9
:1002A000D00080308318D106D601D7014D08D50083
:1002B0005108D5064C080319412AD400F70050080C
:1002C00003194A2AD4020319E629031CA429510858
:1002D000DA00DA175208D9005308D800D701031002
:1002E000DA0CD90CD80CD70CD40B6E29D51F7B296E
:1002F00056145E2A5610541056164F30840083133D
:10030000732A5612D51B8E29541C9929DA0CD90C44
:10031000D80CD70CF70A0319592A9929DA1B9C29FA
:100320000310D70DD80DD90DDA0DF7030319592A8B
:100330008E295617062A56134D08D500D51FA22917
:10034000DA17522ADA13522A5008D400F7004C0860
:10035000D4024D08DA00DA174E08D9004F08D80049
:10036000D7010310DA0CD90CD80CD70CD40BB02958
:10037000D51FBD29D6145E2AD6105410D616533078
:1003800084008313732AD612D51BD029541CDB2971
:10039000DA0CD90CD80CD70CF70A0319592ADB2927
:1003A000DA1BDE290310D70DD80DD90DDA0DF703AE
:1003B0000319592AD029D617062AD6135108D50071
:1003C000D51FE429DA17522ADA13522A5108DA0023
:1003D000DA175208D9005308D800D51FF329DA13C9
:1003E00056155E2A5611D70154104F3084008313DE
:1003F000732AD51B1C2A4D08D500541C062ADA0C7A
:10040000D90CD80CD70CF70A0319592AD71F172A69
:10041000D80A031D172AD90A031D172ADA0A031D51
:10042000172ADA0CD90CD80CF70A0319592A561BCB
:100430009B29D61BDD293B2A8030DA06DA1F242AC5
:100440005E2A5108D500312A4D08D500DA08031D6F
:10045000312AD908031D312AD808031D312AF70192
:10046000522ADA1B3B2A0310D70DD80DD90DDA0D0D
:10047000F70B312A592AD51F3F2ADA17522ADA13E5
:10048000522A5008F7005108DA005208D9005308E0
:10049000D800522A4C08F7004D08DA004E08D9005F
:1004A0004F08D8005A08F8005908F9005808FA000F
:1004B000912AF701F801F901FA01912AD701D80927
:1004C000D909DA09D709D70A031D6C2AD80A031DEE
:1004D0006C2AD90A0319DA0A56187A29D618BC29BF
:1004E0005619F229212A0008D807031C7D2AD90AA7
:1004F000031D7D2ADA0A0319541484030008D9075E
:10050000031C852ADA0A0319541484030008801F87
:10051000803ADA0703185414561A8129D61AC329C7
:10052000F9297A08CB007908CA007808C900770849
:10053000C8004B08CF004A08CE004908CD00480843
:10054000CC006830D3005A30D2000130D100803066
:10055000D0004C0803196E2BD800500803196E2BDD
:10056000D802031CB82A7F30D80703186E2BBE2A86
:100570008130D802031C6E2B03196E2B5808F7002C
:10058000F801F901FA01D7014D08D600D6174E0837
:10059000D5004F08D4001930D8005308D4020318EE
:1005A000E12A0130D5020318E12AD6020318E12A14
:1005B000D7020318E12AD70AD60AD50A5308D40766
:1005C000132B5208D5020318FC2A0130D602031857
:1005D000FC2AD7020318FC2AD70AD60A5208D507E4
:1005E0005308D407031C132BD50A031D132BD60A5B
:1005F000031D132BD70A132B51088038D60203187A
:10060000122B0130D7020318122BD70A5108803859
:10061000D6075208D507031CF02AD60A031DF02A74
:10062000D70AF02A7A14D80B162B212B0310D40DDD
:10063000D50DD60DD70D0310FA0DF90DF80DD90D06
:10064000CD2A591C292B0310F80CF90CFA0CD90CE3
:100650002C2BF70303196E2BD91B552B0310D40D2C
:10066000D50DD60DD70D5308D4020318412B0130F8
:10067000D5020318412BD6020318412BD702031CC5
:10068000642B5208D50203184C2B0130D6020318F4
:100690004C2BD702031C642B51088038D602031858
:1006A000552B0130D702031C642BFA0A031D642B5F
:1006B000F90A031D642BF80A031D642BF70A0319BA
:1006C0006E2BF80CF90CFA0C4D08D8005108D8061E
:1006D000D81F6C2BF817722BF813722BF701F80147
:1006E000F901FA01080055080319E32BDD00590848
:1006F0000319E32BDD070318842B7F30DD02031C75
:10070000E32B0319E32B882B8130DD070318E32B40
:100710005D08F700F801F901FA015608E100E11758
:100720005708E0005808DF001830DD00DE015F1CCC
:10073000B12B5C08FA07031CA32BF90A031DA32B9A
:10074000F80A0319DE175B08F907031CAA2BF80A3D
:100750000319DE175A08D700D7175708F8070318E8
:10076000DE17DE0DF80CF90CFA0CE10CE00CDF0CD6
:100770000310DD0B962B0130F7070318E32BF81B52
:10078000C82BE10DFA0DF90DF80DF7030319E32B52
:10079000E11FD92BFA0A031DD92BF90A031DD92B06
:1007A000F80A031DD92BF80CF90CFA0CF70A0319F7
:1007B000E32B5608DE005A08DE06DE1FE12BF81791
:1007C000E72BF813E72BF701F801F901FA0108000C
:1007D0005508B63CD500FA015608D900D6170310C3
:1007E000D60CD70CD80CFA0CF90CF80CF70CD50B6E
:1007F000EF2BD91F062CF709F809F909FA09F70AAE
:100800000319F80A0319F90A0319FA0A08008318E8
:100810000C2C5D3084008313F701F801F901FA0113
:10082000DD01DE01DF01E0015C085B045A045904CC
:1008300003194A2C2030E1000310D50DD60DD70D39
:10084000D80DDD0DDE0DDF0DE00D5C086002031D2F
:10085000332C5B085F02031D332C5A085E02031D14
:10086000332C59085D02031C442C5908DD025A0838
:10087000031C5A0FDE025B08031C5B0FDF025C08DF
:10088000031C5C0FE0020314F70DF80DF90DFA0DCF
:10089000E10B1C2C5D088000840A5E088000840A3D
:1008A0005F088000840A6008800008002208840035
:1008B00083132318831755088000840A8001A20A35
:1008C0000319A30A08000408CD004C08CF0003193F
:1008D000822C4B08D8004A08D7004908D60048089F
:1008E000D500DC01DB012030DA008230D90073232F
:1008F0007A08CB007908CA007808C9007708C800D0
:10090000CF0B692C4B08D8004A08D7004908D600FD
:100910004808D500E8237A08CB007908CA0078088F
:10092000C9007708C800CB1FA22CCD03CD16C8097B
:10093000C909CA09CB09C80A0319C90A0319CA0A8D
:100940000319CB0A3B30D4009A30D300CA30D2000E
:10095000D1010A30CF004C080319CD0A8314483066
:10096000840083134B08D8004A08D7004908D600F2
:100970004808D5005408DC005308DB005208DA00B0
:100980005108D90007247808F708031DDA2C4C0A0F
:100990004F020319DA2C4D080319DC2C0F394F02D2
:1009A0000319D42C03180C2DCD1B0C2D4D1BDC2C46
:1009B0002030082D2030CD05CD1EEA2CCD124C085C
:1009C000031DCD037708CD002D30D50056244D08EA
:1009D000F700CD014C084F02031DF82C7708CD001D
:1009E0002E30D50056244D08F7002030CD050030BC
:1009F0003030CD1E082DCD124C08031DCD037708D5
:100A0000CD002D30D50056244D08F700CD013030F3
:100A1000F7077708D500562483105408D8005308E8
:100A2000D7005208D6005108D500DC01DB01DA01FD
:100A30000A30D90007247A08D4007908D30078084E
:100A4000D2007708D100CF0BAE2C8A110A12802E6B
:100A5000570B2B2D2E2D4030D8002F2DD8010130D3
:100A60005602D80758088038D900DA015908DB0047
:100A70002B2008005508073A0319482D0B3A031993
:100A80004D2D063A0319552D023A03195B2D602DA1
:100A90000130D600D7002825652DDA010130DB00B2
:100AA0002B200230D6000420652D0130D600023004
:100AB000D7002825652DDA011030DB002B20652DAD
:100AC0000130DA005508DB002B2008000408CD00B7
:100AD0004C08CF000319852D4B08D8004A08D700D1
:100AE0004908D6004808D500DC01DB012030DA00D7
:100AF0008230D90073237A08CB007908CA007808BD
:100B0000C9007708C800CF0B6C2D4B08D8004A08E5
:100B1000D7004908D6004808D500E8237A08CB005A
:100B20007908CA007808C9007708C800CB1FA52D2E
:100B3000CD03CD16C809C909CA09CB09C80A0319CA
:100B4000C90A0319CA0A0319CB0A3B30D4009A30E8
:100B5000D300CA30D200D1010A30CF004C080319AB
:100B6000CD0A83144830840083134B08D8004A0808
:100B7000D7004908D6004808D5005408DC005308BF
:100B8000DB005208DA005108D90007247808F7087A
:100B9000031DDD2D4C0A4F020319DD2D4D080319ED
:100BA000DF2D0F394F020319D72D03180F2ECD1B40
:100BB0000F2E4D1BDF2D20300B2E2030CD05CD1EEE
:100BC000ED2DCD124C08031DCD037708CD002D303F
:100BD000D5003A254D08F700CD014C084F02031D02
:100BE000FB2D7708CD002E30D5003A254D08F700B3
:100BF0002030CD0500303030CD1E0B2ECD124C08EC
:100C0000031DCD037708CD002D30D5003A254D08C2
:100C1000F700CD013030F7077708D5003A2583106B
:100C20005408D8005308D7005208D6005108D50000
:100C3000DC01DB01DA010A30D90007247A08D4008C
:100C40007908D3007808D2007708D100CF0BB12DF6
:100C50008A110A12A62E80080319412EC501040824
:100C6000C4004510831B451400080C1E352E990046
:100C700044088400831345188317840A0319850ADE
:100C80002B2E8A110A12B62E03081F398300193041
:100C900083169900A6309800903083129800FF3098
:100CA000A000A301A20183161F149F141F159F11FA
:100CB00007309C00831383126B283230D600042047
:100CC0000430C400FA30D6000420C40B622EA920E0
:100CD0007A08C7007908C6007808C5007708C400FC
:100CE000A3012430A200C93084007A08CB0079081F
:100CF000CA007808C9007708C8000230CC00632C0D
:100D0000B030D50056244330D50056240D30D500E0
:100D100056240A30D50056240130D600D7002825A5
:100D2000A9207A08C7007908C6007808C5007708A6
:100D3000C400C93084007A08CB007908CA0078085A
:100D4000C9007708C8000230CC00662DB030D5004D
:100D50003A254330D5003A250D30D5003A250A30E2
:100D6000D5003A252430840083132B2E602E630097
:02400E00393F38
:00000001FF
;PIC16F877A
;CRC=BD1B  CREATED="11-nov.-22 02:45"
