:1000000008308A00002800000A108A100A118207AE
:100010003134323433344134343435343634423488
:1000200037343834393443342A3430342334443484
:10003000EC30F43200003C1E0001E330F03A63344F
:1000400069376F00EC30F4320001EC30F43200011B
:10005000E330F03A633469376F003C1E0001E3304F
:10006000F03A633469376F00653C7039E5396F00E9
:100070003C1E0001653C7039E5396F00B7377A10D6
:100080003D10410031196F3DA01E20210001B737FE
:100090007A00EC30F4320001E330F03A633469372F
:1000A0006F00653C7039E5396F0031196F3D000113
:1000B000EC30F4320001E330F03A633469376F001A
:1000C000653C7039E5396F004C30840083130008BB
:1000D000031978280130F800F701F70B6D28F80BA9
:1000E0006C284A30F700F70B73287628800B6A28B3
:1000F0000800530EF039F7000F3008057704880028
:10010000000008148328081008000808F700080EEB
:100110000F39F800080083160810881008118312A0
:1001200088100F3083160805F038880083120815F0
:1001300000000814000085207808D3000810000093
:100140000814000085207808D20008100F308316AC
:10015000080588008312530EF700F030F705770882
:100160005204F8007808D200D21B9128501C881045
:10017000501888140000081100000810510ED20019
:100180000F30D2055208D300792051080F39D20020
:10019000D300792008002830C3000C30C40001309F
:1001A000C5000630C6000810881008110F308316ED
:1001B000080588000810881008110F308312CC0041
:1001C00064200130C2004208033C031CEF280330C6
:1001D000D30079200530CC006420C20AE328023025
:1001E000D30079200530CC006420C2014208033CD2
:1001F000031C062943304207840083130008C7000C
:10020000D0014708D1008B20C20AF6288A150A12AD
:1002100041288A150A1244284D0B0F291229403013
:10022000CE001329CE0101304C02CE074E08803893
:10023000CF00D0014F08D1008B2008004B08073AAF
:1002400003192C290B3A03193129063A03193929C4
:10025000023A03193F2944290130CC00CD000C217A
:100260004929D0010130D1008B200230CC0064201C
:1002700049290130CC000230CD000C214929D001A0
:100280001030D1008B2049290130D0004B08D1001B
:100290008B2008000B08C2008B13831603178C17E2
:1002A0000C140000000083120313C21B8B170317EA
:1002B0000C087F3903199E290313C20003170D0888
:1002C0000313C30003170F080313C4004208CB0035
:1002D0001E21430803178D000313440803178F00E2
:1002E00003130B08C5008B13831603178C170C140C
:1002F0000000000083120313C51B8B1703170C0D9E
:100300000E0D7F3903199E290313C20003170D0830
:100310000313C30003170F080313C4004208CB00E4
:100320001E21430803178D000313440803178F0091
:100330008D0A03198F0A03134A29031703130800B0
:10034000C201A10A2108213C0318002A2408FC3E0E
:100350000318C329043E072AFE3083168600831241
:100360008600C329FD308316860083128600C329C8
:10037000FB308316860083128600C329F73083166C
:10038000860083128600221CCF290608F039F03C33
:10039000031DCE2922102308C200A301FF2906084D
:1003A000F039F03C0319FA2906081039031DDA293F
:1003B000C301EE2906082039031DE1290130C300DD
:1003C000EE2906084039031DE8290230C300EE2952
:1003D00006088039031DEE290330C300430DF700E2
:1003E000F70DFC30F705770824070420F800A30078
:1003F0002214FF29A40A2408043C0319A401A10122
:10040000FF308316860083124208F80008000A10A5
:100410008A140A118207AC29B229B829BE294308D7
:10042000FA004208840083137A188317800803199E
:10043000592A4308C7004208C6004508C9004408B5
:10044000C8004908FA004808840083137A18831703
:1004500080080319462A4708FA00460884008313D7
:100460007A1883170008CA004908FA00480884006F
:1004700083137A18831700084A02031D462AC60A06
:100480000319C70AC80A0319C90A212A4908FA0028
:100490004808840083137A1883178008031D552A9F
:1004A0004208F8004308F9005C2AC20A0319C30A8B
:1004B0000F2A0030F800F90008008E30F7004308DA
:1004C000F8004208F900FA01F808031D712A7908BA
:1004D000F800F9010830F702F808031D712AF70146
:1004E000792A0310F81B782AF90DF80DF703712A01
:1004F000F813080042080319EA2ACA00460803193B
:10050000EA2ACA0703188B2A7F30CA02031CEA2A88
:100510000319EA2A8F2A8130CA070318EA2A4A08EF
:10052000F700F801F901FA014308CE00CE1744089C
:10053000CD004508CC001830CA00CB014C1CB82AAD
:100540004908FA07031CAA2AF90A031DAA2AF80A6D
:100550000319CB174808F907031CB12AF80A031935
:10056000CB174708C400C4174408F8070318CB1773
:10057000CB0DF80CF90CFA0CCE0CCD0CCC0C0310F6
:10058000CA0B9D2A0130F7070318EA2AF81BCF2A65
:10059000CE0DFA0DF90DF80DF7030319EA2ACE1F57
:1005A000E02AFA0A031DE02AF90A031DE02AF80AE4
:1005B000031DE02AF80CF90CFA0CF70A0319EA2AD1
:1005C0004308CB004708CB06CB1FE82AF817EE2AD2
:1005D000F813EE2AF701F801F901FA0108008E304C
:1005E000F7004208F7024308F9004408F800F91739
:1005F000F7080319062B0310F908031D022BF8084E
:100600000319062BF90CF80CF70BFB2AC31F0D2B53
:10061000F809F909F80A0319F90A0800CA010408D7
:10062000C9004A10831B4A14430EF038C500C507A1
:10063000E23EC600323EC80043080F39C607C6076F
:10064000C807E93EC700C707C707420E0F39C707EB
:10065000C807C70DC80DC809C80D42080F39C8071B
:10066000C50D0730C4000A30C807C703031C342B6C
:10067000C707C603031C382BC607C503031C3C2B46
:10068000C507C403031C402B443084008313073088
:100690004905491384074830040203194917000823
:1006A000F700031D5B2B491B5B2B491A6D2BC919E6
:1006B0005B2B20305E2BC91549123030F707C30180
:1006C0000408C2004310831B43147708CB001E218B
:1006D00042088400831343188317840A491F4B2B55
:1006E0000800C008031D782B41083F02031C7F2B24
:1006F000831609108910091183120914802B09101F
:1007000008000030F800063892009B3083169200F3
:1007100083122011200883168700831207110C30E2
:100720009700773095001708CF3997000830C2003E
:10073000FA30CC006420C20B982BBC01BC08031912
:10074000950108000030F800063892009B308316AF
:10075000920083122011200883168700831207114C
:100760000C309700FA3095001708CF399700083001
:10077000C200FA30CC006420C20BB92BBC01BC080B
:100780000319950108000030F800063892009B30EC
:10079000831692008312201120088316870083128B
:1007A00007110C309700453095001708CF39970096
:1007B0000830C200FA30CC006420C20BDA2BBC0136
:0807C000BC08031995010800B3
:1010000003081F398300FF30A000A801B901BA010D
:10101000BB01BC012330C10083161F149F141F1590
:101020009F1107309C0083138312A1012210A3019A
:10103000A401A501A6013130A900AA013230AC00FB
:10104000AD012330AF00B0014130B200B3014230F6
:10105000B500B60183161F1383121F179F1783163F
:101060009F1783121F1483161F109F101F119F11AB
:101070000030F80083121F08C73978049F008A11D6
:10108000CB288A158A1109298A1583168113003005
:10109000F8000638831292009B3083169200831268
:1010A0002011200883168700831207110C30970047
:1010B000FF3083168800860087008312A000A801F5
:1010C0003C08FA3E03188B2D063E8D2DA801BC016D
:1010D000B901BA01BB010C30CB008A111E218A155F
:1010E0000130CC00CD008A110C218A15183003176D
:1010F0008D0000308F008A1103134A218A150A30AF
:10110000CC000130CD008A110C218A151B30031749
:101110008D0000308F008A1103134A218A15013097
:10112000CC000230CD008A110C218A151D30031726
:101130008D0000308F008A1103134A218A15A808F8
:10114000031DBE288A11A0218A157808A700A708C8
:101150000319BD282B30280784008313270880003B
:101160002E30280784008313270880003130280799
:101170008400831327088000A80A9F286430CC00CD
:101180008A1164208A15C3012B30C200C5012930A1
:10119000C4008A110F228A15780879040319D72808
:1011A000BC0A6430CC008A1164208A15D928013029
:1011B000BC00C3012E30C200C5012C30C4008A110E
:1011C0000F228A15780879040319EE280230BC0032
:1011D0006430CC008A1164208A15F0280130BC00EC
:1011E000C3013130C200C5012F30C4008A110F2263
:1011F0008A157808790403191F290C30CB008A114D
:101200001E218A150830CC000130CD008A110C2136
:101210008A15223003178D0000308F008A110313C6
:101220004A218A15B90AC830CC008A1164208A156F
:101230000330BC006430CC008A1164208A158B2DE9
:101240000C30CB008A111E218A150130CC00CD0054
:101250008A110C218A15253003178D0000308F006C
:101260008A1103134A218A150130CC000230CD00C7
:101270008A110C218A15283003178D0000308F0049
:101280008A1103134A218A150A30CC000230CD009E
:101290008A110C218A152D3003178D0000308F0024
:1012A0008A1103134A218A15A808031D73298A117C
:1012B000A0218A157808A700A708031972292B30E6
:1012C000280784008313270880002E302807840015
:1012D00083132708800031302807840083132708F0
:1012E0008000A80A5429C3012B30C200C50129304F
:1012F000C4008A110F228A157808790403198729F6
:101300000230BC006430CC008A1164208A15C3010D
:101310002E30C200C5012C30C4008A110F228A155C
:101320007808790403199A29BC036430CC008A1127
:1013300064208A15C3013130C200C5012F30C400BA
:101340008A110F228A15780879040319C9290C30EB
:10135000CB008A111E218A150830CC000130CD0047
:101360008A110C218A152F3003178D0000308F0051
:101370008A1103134A218A15C830CC008A116420CF
:101380008A150330BC00BA0A6430CC008A1164208C
:101390008A15C830CC008A1164208A158B2D0C3038
:1013A000CB008A111E218A150130CC00CD008A1194
:1013B0000C218A15343003178D0000308F008A11FC
:1013C00003134A218A150A30CC000130CD008A115E
:1013D0000C218A15383003178D0000308F008A11D8
:1013E00003134A218A15A808031D122A8A11A02175
:1013F0008A157808A700A7080319112A2B30280797
:1014000084008313270880002E302807840083136C
:1014100027088000313028078400831327088000C4
:10142000A80AF329C3012B30C200C5012930C4002A
:101430008A110F228A15780879040319252ABC011C
:101440006430CC008A1164208A15C3012E30C2009A
:10145000C5012C30C4008A110F228A15780879043E
:101460000319392A0130BC006430CC008A11642091
:101470008A15C3013130C200C5012F30C4008A1162
:101480000F228A15780879040319682A0C30CB00DA
:101490008A111E218A150830CC000130CD008A1136
:1014A0000C218A153A3003178D0000308F008A1105
:1014B00003134A218A15BB0AC830CC008A11642064
:1014C0008A150330BC006430CC008A1164208A1570
:1014D000C830CC008A1164208A158B2D0C30CB00CB
:1014E0008A111E218A150130CC00CD008A110C21F1
:1014F0008A153E3003178D0000308F008A110313C8
:101500004A218A150130CC000230CD008A110C210D
:101510008A15423003178D0000308F008A110313A3
:101520004A218A15C830CC008A1164208A15A8087F
:10153000031DC22A8A11A0218A157808A700A708CE
:101540000319C12A34302807840083132708800038
:10155000373028078400831327088000313028079C
:101560008400831327088000A80A0A30CC000130C9
:10157000CD008A110C218A152708CB008A111E2163
:101580008A15972AC3013430C200C5013230C40025
:101590008A110F228A15780879040319D62A043093
:1015A000BC006430CC008A1164208A15C301373036
:1015B000C200C5013530C4008A110F228A1578088F
:1015C00079040319EA2A0530BC006430CC008A1182
:1015D00064208A158B2D0C30CB008A111E218A15B0
:1015E0000130CC00CD008A110C218A154730031739
:1015F0008D0000308F008A1103134A218A15390BA0
:10160000682B0A30CC000130CD008A110C218A15DC
:10161000493003178D0000308F008A1103134A21CF
:101620008A150130CC000230CD008A110C218A15B8
:101630001F151F19192B83161E088312BD001E08C3
:10164000BE003E08C3003D08C2008A115D228A1513
:101650007A08C5007908C4007808C3007708C2007A
:101660005A30C900F530C8007930C7007D30C60057
:101670008A117A228A157A08C5007908C400780888
:10168000C3007708C2008A11EF228A157908C000CA
:101690007808BF00103084004008C3003F08C20033
:1016A0008A110E238A152030CB008A111E218A153B
:1016B0004330CB008A111E218A158A1171238A15A5
:1016C0008A1181238A15C830CC008A1164208A15BA
:1016D0003A0BD02BB9010A30CC000130CD008A1171
:1016E0000C218A154C3003178D0000308F008A11B1
:1016F00003134A218A15C830CC008A1164208A1548
:101700001F151F19812B83161E088312BD001E088A
:10171000BE003E08C3003D08C2008A115D228A1542
:101720007A08C5007908C4007808C3007708C200A9
:101730005A30C900F530C8007930C7007D30C60086
:101740008A117A228A157A08C5007908C4007808B7
:10175000C3007708C2008A11EF228A157908C000F9
:101760007808BF00103084004008C3003F08C20062
:101770008A110E238A152030CB008A111E218A156A
:101780004330CB008A111E218A158A1171238A15D4
:101790008A11A2238A15C830CC008A1164208A15C8
:1017A0003B0B382CB9010A30CC000130CD008A1136
:1017B0000C218A15513003178D0000308F008A11DB
:1017C00003134A218A15C830CC008A1164208A1577
:1017D0001F151F19E92B83161E088312BD001E0852
:1017E000BE003E08C3003D08C2008A115D228A1572
:1017F0007A08C5007908C4007808C3007708C200D9
:101800005A30C900F530C8007930C7007D30C600B5
:101810008A117A228A157A08C5007908C4007808E6
:10182000C3007708C2008A11EF228A157908C00028
:101830007808BF00103084004008C3003F08C20091
:101840008A110E238A152030CB008A111E218A1599
:101850004330CB008A111E218A158A1171238A1503
:101860008A11C3238A15C830CC008A1164208A15D6
:101870008B2D0C30CB008A111E218A150130CC0033
:10188000CD008A110C218A15553003178D000030C8
:101890008F008A1103134A218A156430CC008A1103
:1018A00064208A15390BBB2C0A30CC000130CD00E6
:1018B0008A110C218A15583003178D0000308F00D3
:1018C0008A1103134A218A150130CC000230CD0061
:1018D0008A110C218A151F151F196C2C83161E08DE
:1018E0008312BD001E08BE003E08C3003D08C200B2
:1018F0008A115D228A157A08C5007908C400780823
:10190000C3007708C2005A30C900F530C8007930EA
:10191000C7007D30C6008A117A228A157A08C50070
:101920007908C4007808C3007708C2008A11EF2242
:101930008A157908C0007808BF001030840040087C
:10194000C3003F08C2008A110E238A152030CB0045
:101950008A111E218A154330CB008A111E218A1557
:101960008A1171238A158A1181238A15C830CC0007
:101970008A1164208A153A0B232DB9010A30CC0054
:101980000130CD008A110C218A155B3003178D00C0
:1019900000308F008A1103134A218A15C830CC0009
:1019A0008A1164208A151F151F19D42C83161E084E
:1019B0008312BD001E08BE003E08C3003D08C200E1
:1019C0008A115D228A157A08C5007908C400780852
:1019D000C3007708C2005A30C900F530C80079301A
:1019E000C7007D30C6008A117A228A157A08C500A0
:1019F0007908C4007808C3007708C2008A11EF2272
:101A00008A157908C0007808BF00103084004008AB
:101A1000C3003F08C2008A110E238A152030CB0074
:101A20008A111E218A154330CB008A111E218A1586
:101A30008A1171238A158A11A2238A15C830CC0015
:101A40008A1164208A153B0B8B2DB9010A30CC001A
:101A50000130CD008A110C218A15603003178D00EA
:101A600000308F008A1103134A218A15C830CC0038
:101A70008A1164208A151F151F193C2D83161E0814
:101A80008312BD001E08BE003E08C3003D08C20010
:101A90008A115D228A157A08C5007908C400780881
:101AA000C3007708C2005A30C900F530C800793049
:101AB000C7007D30C6008A117A228A157A08C500CF
:101AC0007908C4007808C3007708C2008A11EF22A1
:101AD0008A157908C0007808BF00103084004008DB
:101AE000C3003F08C2008A110E238A152030CB00A4
:101AF0008A111E218A154330CB008A111E218A15B6
:101B00008A1171238A158A11C3238A15C830CC0023
:101B10008A1164208A155F2863000A148A100A1546
:0E1B2000820766282029CF296E2AEB2A392C4D
:02400E007A3FF7
:00000001FF
;PIC16F877A
;CRC=870E  CREATED="30-oct.-22 13:33"
