:1000000000308A003A280000FF00030E8301A1009F
:100010000A08A0008A010408A2007708A300780853
:10002000A4007908A5007A08A600831383128C30F7
:100030008400801C1D288C182E2822088400230888
:10004000F7002408F8002508F9002608FA0020081F
:100050008A00210E8300FF0E7F0E09008A110A120A
:100060003128831606100130831286068C108A11FF
:100070000A121D2803081F39830083161F149F14BA
:100080001F159F1107309C008313FF308500091452
:1000900089140915003088008312051C5D28051895
:1000A0004F280030F80006389200EE308316920098
:1000B0008C14C03083128B046128831606108312BF
:1000C0000610851C7128851863280030F800063852
:1000D0009200D430831692008C14C03083128B04AB
:1000E00075288316061083120610051D852805192C
:1000F00077280030F80006389200BC308316920052
:100100008C14C03083128B04892883160610831246
:100110000610851D992885198B280030F8000638AF
:100120009200B230831692008C14C03083128B047C
:100130009D288316061083120610051EAD28051A89
:100140009F280030F800063892009E3083169200F7
:100150008C14C03083128B04B128831606108312CE
:100160000610851EC128851AB3280030F80006380D
:1001700092008D30831692008C14C03083128B0451
:10018000C5288316061083120610091CD5280918E5
:10019000C7280030F800063892007E30831692009F
:1001A0008C14C03083128B04D92883160610831256
:0601B00006104D2863005B
:02400E007A3FF7
:00000001FF
;PIC16F877A
;CRC=3F2D  CREATED="10-oct.-22 22:59"
