:1000000008308A00002800000A108A100A118207AE
:100010003134323433344134343435343634423488
:1000200037343834393443342A3430342334443484
:10003000CC30203AE53670108A32731DA01275104C
:10004000430049274729C5294129A021CC20D62290
:100050000000A031EC30F632A0316F39F232633A51
:100060006100A020E432EC306E3AE5100001CC30A3
:10007000203AE53670108A32731DA01275104300C5
:1000800020106336613B65106539F237EE3261004E
:100090006536A033F230E4372005E5393A102523E0
:1000A0003317320049274729C5294129A021CC20EF
:1000B000D6220001A031EC30F632A0316F39F23295
:1000C000633A6100A020E432EC306E3AE5100001A2
:1000D000A032731DA012E6192E19000120106336FC
:1000E000613B65106539F237EE3261004B308400B8
:1000F00083130008031989280630F800F701F70B6D
:100100007F28F80B7E287B30F700F70B8528800BC3
:100110007C280800520EF039F7000F3008057704EC
:100120008800000008140230F700F70B9528982883
:100130000000081008000808F700080E0F39F80042
:1001400008008316081088100811831288100F30D9
:1001500083160805F038880083120815000008147B
:1001600000009B207808D200081000000814B8286E
:10017000B92800009B207808D10008100F308316A2
:10018000080588008312520EF700F030F705770853
:100190005104F8007808D100D11BA7284F1C881003
:1001A0004F1888140000081100000810500ED100EC
:1001B0000F30D1055108D2008A2050080F39D100E4
:1001C000D2008A2008002830BE000C30BF00013069
:1001D000C0000630C1000810881008110F308316C7
:1001E000080588000810881008110F308312CB0012
:1001F00076200130BD003D08033C031C0729033075
:10020000D2008A200530CB007620BD0AFB280230C0
:10021000D2008A200530CB007620BD013D08033C8A
:10022000031C1E293E303D07840083130008C200D2
:10023000CF014208D000A120BD0A0E298A150A125A
:1002400041288A150A1244281030C100F701FA012A
:10025000BE0CBD0C031C32293F08F7070318FA0A2D
:100260004008FA07FA0CF70CF90CF80CC10B282916
:100270008A150A1251288E30F7003E08F8003D0812
:10028000F900FA01F808031D4F297908F800F9016F
:100290000830F702F808031D4F29F701572903100A
:1002A000F81B5629F90DF80DF7034F29F81308002C
:1002B0004A080319C829D2004E080319C829D207D1
:1002C000031869297F30D202031CC8290319C829E1
:1002D0006D298130D2070318C8295208F700F801A8
:1002E000F901FA014B08D600D6174C08D5004D0885
:1002F000D4001830D200D301541C96295108FA07B3
:10030000031C8829F90A031D8829F80A0319D31741
:100310005008F907031C8F29F80A0319D3174F084F
:10032000CC00CC174C08F8070318D317D30DF80CE2
:10033000F90CFA0CD60CD50CD40C0310D20B7B297B
:100340000130F7070318C829F81BAD29D60DFA0D9F
:10035000F90DF80DF7030319C829D61FBE29FA0AAB
:10036000031DBE29F90A031DBE29F80A031DBE2973
:10037000F80CF90CFA0CF70A0319C8294B08D3003A
:100380004F08D306D31FC629F817CC29F813CC2958
:10039000F701F801F901FA0108008E30F7003D0875
:1003A000F7023E08F9003F08F800F917F7080319AB
:1003B000E4290310F908031DE029F8080319E429CA
:1003C000F90CF80CF70BD929BE1FEB29F809F9092C
:1003D000F80A0319F90A8A150A12AE284C0BF129FA
:1003E000F4294030CD00F529CD0101304B02CD0775
:1003F0004D088038CE00CF014E08D000A120080063
:100400004A08073A03190E2A0B3A0319132A063A27
:1004100003191B2A023A0319212A262A0130CB008C
:10042000CC00EE212B2ACF010130D000A1200230D8
:10043000CB0076202B2A0130CB000230CC00EE21FD
:100440002B2ACF011030D000A1202B2A0130CF0061
:100450004A08D000A12008000B08BE008B138316A9
:1004600003178C170C140000000083120313BE1B2B
:100470008B170318632A03170C087F390313BE0078
:1004800003170D080313BF0003170F080313C00061
:100490003E08CA0000223F0803178D0003134008DE
:1004A00003178F0003130B08C1008B138316031768
:1004B0008C170C140000000083120313C11B8B1750
:1004C000BD0B632A822A03170C0D0E0D7F3903130F
:1004D000BE0003170D080313BF0003170F08031313
:1004E000C0003E08CA0000223F0803178D00031316
:1004F000400803178F008D0A03198F0A0310031396
:10050000BD0B2C2A08004008F8013F0203188B2A73
:100510003F08F700972AF7010830C100BF0DF70D1B
:10052000400877020318F700F80DC10B8E2A080067
:1005300078083D08BF006430C00083227708BD0002
:1005400078083030031DAB2ABE1CB22ABE19B22A6D
:100550003E1A2030AE2ABE113E123E14F80778082B
:10056000CA0000223D08BF000A30C000832277087D
:10057000BD0078083030031DC32ABE19C72A3E1CAF
:10058000C72A3E1A2030F8077808CA000022303007
:10059000BD073D08CA00002208000B08BD008B13F0
:1005A000831603178C170C1400000000831203132A
:1005B000BD1B8B1703170C087F390319212B03135D
:1005C000BD0003170D080313BE0003170F08031324
:1005D000BF003D08CA0000223E0803178D00031328
:1005E0003F0803178F0003130B08C0008B138316FB
:1005F00003178C170C140000000083120313C01B98
:100600008B1703170C0D0E0D7F390319212B0313C4
:10061000BD0003170D080313BE0003170F080313D3
:10062000BF003D08CA0000223E0803178D000313D7
:100630003F0803178F008D0A03198F0A0313CD2A71
:10064000031703130800BD01A20A2208213C031866
:10065000832B2508FC3E0318462B043E8A2BFE30D4
:100660008316860083128600462BFD308316860093
:1006700083128600462BFB30831686008312860089
:10068000462BF7308316860083128600231C522BDC
:100690000608F039F03C031D512B23102408BD003F
:1006A000A401822B0608F039F03C03197D2B0608C3
:1006B0001039031D5D2BBE01712B06082039031D67
:1006C000642B0130BE00712B06084039031D6B2BD3
:1006D0000230BE00712B06088039031D712B0330D8
:1006E000BE003E0DF700F70DFC30F7057708250733
:1006F0000420F800A4002314822BA50A2508043C3A
:100700000319A501A201FF308316860083123D085C
:10071000F80008000A148A140A1182072F2B352BBF
:100720003B2B412B3E08FA003D08840083137A18C6
:10073000831780080319DC2B3E08C2003D08C10066
:100740004008C4003F08C3004408FA00430884007E
:1007500083137A18831780080319C92B4208FA00FB
:100760004108840083137A1883170008C5004408E1
:10077000FA004308840083137A188317000845029F
:10078000031DC92BC10A0319C20AC30A0319C40AEB
:10079000A42B4408FA004308840083137A188317B3
:1007A0008008031DD82B3D08F8003E08F900DF2B18
:1007B000BD0A0319BE0A922B0030F800F9000800A8
:1007C0008318E52B523084008313F701F801F901F7
:1007D000FA01D201D301D401D501510850044F04CC
:1007E0004E040319232C2030D6000310CA0DCB0D64
:1007F000CC0DCD0DD20DD30DD40DD50D5108550214
:10080000031D0C2C50085402031D0C2C4F085302DE
:10081000031D0C2C4E085202031C1D2C4E08D20244
:100820004F08031C4F0FD3025008031C500FD40273
:100830005108031C510FD5020314F70DF80DF90DE3
:10084000FA0DD60BF52B52088000840A530880005D
:10085000840A54088000840A5508800008000408AF
:10086000C2004108C40003194E2C4008CD003F08C7
:10087000CC003E08CB003D08CA00D101D001203099
:10088000CF008230CE0058217A08C0007908BF001E
:100890007808BE007708BD00C40B352C4008CD0099
:1008A0003F08CC003E08CB003D08CA004A08B63CD1
:1008B000CA00FA014B08CE00CB170310CB0CCC0CAE
:1008C000CD0CFA0CF90CF80CF70CCA0B5D2CCE1FF2
:1008D000742CF709F809F909FA09F70A0319F80A53
:1008E0000319F90A0319FA0A7A08C0007908BF0047
:1008F0007808BE007708BD00C01F8B2CC203C2164B
:10090000BD09BE09BF09C009BD0A0319BE0A031902
:10091000BF0A0319C00A3B30C9009A30C800CA3068
:10092000C700C6010A30C40041080319C20A831473
:100930003D30840083134008CD003F08CC003E08C2
:10094000CB003D08CA004908D1004808D00047083C
:10095000CF004608CE00E0237808F708031DC32C1B
:10096000410A44020319C32C42080319C52C0F394C
:1009700044020319BD2C0318F52CC21BF52C421B95
:10098000C52C2030F12C2030C205C21ED32CC2123F
:100990004108031DC2037708C2002D30CA0000229F
:1009A0004208F700C20141084402031DE12C770808
:1009B000C2002E30CA0000224208F7002030C205D3
:1009C00000303030C21EF12CC2124108031DC20398
:1009D0007708C2002D30CA0000224208F700C20189
:1009E0003030F7077708CA00002283104908CD008D
:1009F0004808CC004708CB004608CA00D101D00106
:100A0000CF010A30CE00E0237A08C9007908C80077
:100A10007808C7007708C600C40B972C08003E086A
:100A2000C5004208C506C51F1A2D03110310BE1BC1
:100A300003144D2D3E08C5004108C6003D08C602FE
:100A40000319282DC51F4D2D0308013A83004D2D94
:100A50004208C6003E08C6020319342DC51F4D2D9D
:100A60000308013A83004D2D4308C6003F08C60223
:100A70000319402DC51F4D2D0308013A83004D2D4C
:100A80004408C6004008C60203194C2DC51F4D2D51
:100A90000308013A83004D2D03108A150A126C2AAF
:1010000003081F398300A701FF30B10083161F14A6
:101010009F141F159F1107309C0083138312A0019A
:10102000A101A2012310A401A5013130A800A9004B
:10103000AA00AB00AC0183161F1383121F179F1762
:1010400083169F1783121F1483161F109F101F11E2
:101050009F11FF308800860087008312B1000030A6
:10106000F800063892009B308316920083123111EB
:10107000310883168700831207110C3097008A11FC
:10108000E3288A158A1121298A1583168113831270
:10109000BE013308BD000230C0007130BF008A11AC
:1010A00024298A157908BE007808BD00FA013E0C93
:1010B000F900F90C3F30F9057908BC00B116310888
:1010C000831687008312871EBA29B116310883164A
:1010D00087008312871A65281430CB008A11762086
:1010E0008A1531173108831687008312071BBA2926
:1010F0000030F8001F08C73978049F002030F7003F
:10110000F70B8028832800001F151F1985288316D8
:101110001E088312B200BE013208BD008A113B21B5
:101120008A157A08CD007908CC007808CB007708BA
:10113000CA005A30D100F530D0007930CF007D3070
:10114000CE008A1158218A157A08C0007908BF009C
:101150007808BE007708BD008A11CD298A15780865
:10116000B3000230CB000130CC008A11EE218A1589
:10117000183003178D0000308F0003100D3003135B
:10118000BD008A112C228A153308BD001B30BE0019
:101190008A1198228A152030CA008A1100228A15E5
:1011A0004330CA008A1100228A152030F700F70B5D
:1011B000D728DA2800003308193A0319E328043A3B
:1011C0000319E428EC2895012030F700F70BE628F6
:1011D000E92800003C0895008316061083120610CB
:1011E00033081E3C0318B9290C30CA008A110022AA
:1011F0008A150130CB00CC008A11EE218A152130EE
:1012000003178D0000308F008A110313CD228A1539
:10121000A7012708033C031C2B298A1123238A15C5
:101220007808A600A60803192A292D30270784006C
:10123000831326088000A70A01302707BD00CB00D2
:101240000230CC008A11EE218A152608CA008A11C4
:1012500000228A1509299630CB008A1176208A153A
:10126000BE012D30BD00C0012830BF008A1192237D
:101270008A157808790403199E290C30CA008A114E
:1012800000228A150130CB00CC008A11EE218A158C
:10129000293003178D0000308F008A110313CD22EF
:1012A0008A156430CB008A1176208A150130CB0074
:1012B0000230CC008A11EE218A15313003178D00DF
:1012C00000308F008A110313CD228A159630CB008F
:1012D0008A1176208A150C30CA008A1100228A15DC
:1012E0000130CB000230CC008A11EE218A15373054
:1012F00003178D0000308F0003100D300313BD0065
:101300008A112C228A153308BD001B30BE008A11B9
:1013100098228A152030CA008A1100228A1543308B
:10132000CA008A1100228A150830BD00FA30CB00AD
:101330008A1176208A15BD0B9629B92989140910BE
:101340000C30CA008A1100228A150130CB00CC0073
:101350008A11EE218A15403003178D0000308F006E
:101360008A110313CD228A159630CB008A1176207C
:101370008A15712831173108831687008312071FD9
:101380004F2B31173108831687008312071BC129A1
:101390001430CB008A1176208A15B11631088316D5
:1013A00087008312871A4F2B0830F8001F08C739AF
:1013B00078049F002030F700F70BDC29DF290000BC
:1013C0001F151F19E1291E08FA0083161E08831233
:1013D000BD001E08BE008A113B218A157A08B7009D
:1013E0007908B6007808B5007708B4003708CD0052
:1013F0003608CC003508CB003408CA00CD30D10007
:10140000CC30D000CF018430CE008A1158218A150B
:101410007A08BB007908BA007808B9007708B800E4
:101420000230CB000130CC008A11EE218A15483001
:1014300003178D0000308F0003100E300313BD0022
:101440008A112C228A15893084003B08C0003A0892
:10145000BF003908BE003808BD000230C1008A1143
:101460002F248A153330CA008A1100228A152E30A3
:10147000CA008A1100228A153230CA008A1100225D
:101480008A152030F700F70B432A462A000033085C
:10149000193A03194F2A043A0319502A582A950178
:1014A0002030F700F70B522A552A00003C0895001F
:1014B0008316061083120610C001BF017030BE00F3
:1014C0008330BD003B08C4003A08C3003908C2009D
:1014D0003808C1008A110F2D8A15031C4E2B0C30C1
:1014E000CA008A1100228A150130CB00CC008A1173
:1014F000EE218A15523003178D0000308F008A11BB
:101500000313CD228A15A7012708033C031CA62A32
:101510008A1123238A157808A600A6080319A52A8C
:101520002D3027078400831326088000A70A013086
:101530002707BD00CB000230CC008A11EE218A15AE
:101540002608CA008A1100228A15842A9630CB0008
:101550008A1176208A15BE012D30BD00C0012830C9
:10156000BF008A1192238A15780879040319332B56
:10157000091489100C30CA008A1100228A15013022
:10158000CB00CC008A11EE218A155A3003178D004A
:1015900000308F008A110313CD228A156430CB00EE
:1015A0008A1176208A150130CB000230CC008A11D6
:1015B000EE218A15623003178D0000308F008A11EA
:1015C0000313CD228A159630CB008A1176208A1516
:1015D0000130CB00CC008A11EE218A156630CA009A
:1015E0008A1100228A150130CB000230CC008A110A
:1015F000EE218A156630CA008A1100228A156830E9
:1016000003178D0000308F00031005300313BD0059
:101610008A112C228A15893084003B08C0003A08C0
:10162000BF003908BE003808BD000230C1008A1171
:101630002F248A153330CA008A1100228A152E30D1
:10164000CA008A1100228A153230CA008A1100228B
:101650008A150830BD00FA30CB008A1176208A1531
:10166000BD0B2B2B4E2B891409100C30CA008A118C
:1016700000228A150130CB00CC008A11EE218A1598
:101680006E3003178D0000308F008A110313CD22B6
:101690008A159630CB008A1176208A15CD295E28CE
:0216A0006300E5
:02400E00313F40
:00000001FF
;PIC16F877A
;CRC=C90E  CREATED="20-oct.-22 20:22"
