:1000000001308A00D12900000A108A100A118207E3
:100010003134323433344134343435343634423488
:1000200037343834393443342A3430342334443484
:10003000D4326336611D00002A3084008313000827
:1000400003192F280630F800F701F70B2528F80BC5
:1000500024287B30F700F70B2B28800B2228080080
:10006000300EF039F7000F300805770488000000E3
:1000700008140230F700F70B3B283E280000081058
:1000800008000808F700080E0F39F800080083166A
:10009000081088100811831288100F308316080585
:1000A000F038880083120815000008140000412071
:1000B0007808B0000810000008145E285F280000CF
:1000C00041207808AF0008100F308316080588001B
:1000D0008312300EF700F030F70577082F04F80090
:1000E0007808AF00AF1B4D282D1C88102D188814E0
:1000F00000000811000008102E0EAF000F30AF05F1
:100100002F08B00030202E080F39AF00B00030208B
:1001100008002830A6000C30A7000130A8000630E7
:10012000A9000810881008110F30831608058800F0
:100130000810881008110F308312AA001C2001300B
:10014000A5002508033C031CAD280330B000302077
:100150000530AA001C20A50AA1280230B0003020DA
:100160000530AA001C20A5012508033C031CC42857
:1001700026302507840083130008AA00AD012A0851
:10018000AE004720A50AB4288A110A12E2298A1172
:100190000A12E3292A0BCD28D0284030AB00D12801
:1001A000AB0101302902AB072B088038AC00AD0150
:1001B0002C08AE00472008002808073A0319EA284F
:1001C0000B3A0319EF28063A0319F728023A0319E4
:1001D000FD2802290130A900AA00CA200729AD0183
:1001E0000130AE0047200230AA001C200729013050
:1001F000A9000230AA00CA200729AD011030AE00C4
:10020000472007290130AD002808AE00472008002C
:100210000B08A5008B13831603178C170C14000012
:10022000000083120313A51B8B1703170C087F39DB
:1002300003195C290313A50003170D080313A60077
:1002400003170F080313A7002508A800DC202608C1
:1002500003178D000313270803178F0003130B08E0
:10026000A8008B13831603178C170C1400000000D2
:1002700083120313A81B8B1703170C0D0E0D7F3968
:1002800003195C290313A50003170D080313A60027
:1002900003170F080313A7002508A800DC20260871
:1002A00003178D000313270803178F008D0A031906
:1002B0008F0A03130829031703138A110A12F1295D
:1002C000A501A00A2008213C0318C0292308FC3EF0
:1002D00003188329043EC929FE3083168600831241
:1002E00086008329FD3083168600831286008329C9
:1002F000FB3083168600831286008329F73083162D
:10030000860083128600211C8F290608F039F03CF4
:10031000031D8E2921102208A500A201BF2906086D
:10032000F039F03C0319BA2906081039031D9A293F
:10033000A601AE2906082039031DA1290130A60017
:10034000AE2906084039031DA8290230A600AE29AF
:1003500006088039031DAE290330A600260DF700DC
:10036000F70DFC30F705770823070420F800A200FA
:100370002114BF29A30A2308043C0319A301A001E7
:10038000FF308316860083122508F8008A110A12AE
:10039000F2290A148A100A1182076C297229782915
:1003A0007E2903081F39830083161F149F141F150D
:1003B0009F1107309C0083138312A0012110A2011A
:1003C000A3018928C7288316811301308312A9004D
:1003D000AA00CA20183003178D0000308F000313C5
:1003E000082960297808A400A4080319042A083001
:1003F000A9000130AA00CA200830A9000130AA00D3
:0E040000CA202408A800DC208316E52963002A
:02400E00323F3F
:00000001FF
;PIC16F877A
;CRC=6E5F  CREATED="13-oct.-22 19:59"
